:020000040800F2
:10000000A80C002071010008F3060008E7060008AC
:10001000EF060008BB010008150F000800000000F3
:100020000000000000000000000000007D0C00083F
:10003000FD03000800000000870100088901000896
:10004000190F000895080008990C0008F30B000828
:10005000C5040008290B0008FF0300080B04000872
:10006000150400081F04000829040008C301000843
:10007000C5010008C7010008C9010008CB0100083C
:10008000CD010008CF010008B9010008110F0008D8
:10009000130F0008BF010008C10100083304000865
:1000A0009B0C0008A10C00089F0C00089D0C000888
:1000B000A30C0008B10C000800000000ED060008C9
:1000C000EB0600080000000000000000F50B00082F
:1000D00000000000F50C00083D0D000800000000C5
:1000E00009040008F10B00080F0F0008DFF80CD01E
:1000F00000F050F80048004779100008A80C0020D4
:1001000030BF704720BF704740BF7047BFF36F8F4D
:100110007047BFF34F8F7047BFF35F8F704701DFAA
:100120007047EFF31480704780F31488BFF36F8F2C
:100130007047EFF30980704780F309887047EFF349
:100140000880704780F30888704772B6704762B6BF
:10015000704771B6704761B6704780F31188704779
:10016000EFF31280704740BA704700BA7047000042
:100170000648804706480047FEE7FEE7FEE7FEE741
:10018000FEE7FEE7FEE7FEE7FEE7FEE77F0C00087E
:10019000ED000008064C074D06E0E06840F0010362
:1001A00094E8070098471034AC42F6D3FFF7A2FF5B
:1001B000EC1500080C160008704700BFFEE77047FA
:1001C0007047704770477047704770477047704777
:1001D00000B58BB0224800F051F822480090224828
:1001E00000688068019010200290000103900020B8
:1001F00004908020059000200690079008904FF40E
:100200004050099000200A906946154800F0D8F83F
:1002100013483C3000F032F814480090144800684D
:1002200080680190102002900001039069460C48FC
:100230003C3000F0C5F80A48283800F01FF80D4897
:1002400000900D4800688068019010200290000125
:10025000039069460248283800F0B2F80BB000BDA0
:100260004400024004380140900000200444004053
:100270009800002004480040A0000020016821F000
:10028000010101600021016041608160C160484A54
:10029000811A90425BD012DC464AA0EB02019042E8
:1002A0003AD007DC444941181BD0142922D0282910
:1002B0007AD128E0142938D0282975D13EE0B1F54B
:1002C0006C7F5BD006DCB1F5627F49D0B1F5677F0A
:1002D0006AD14CE0B1F5717F57D0B1F5767F63D12B
:1002E0005BE034494439496841F00F01314A443AEE
:1002F00051605AE02F494439496841F0F0012D4AD4
:10030000443A516051E02B494439496841F47061E5
:10031000284A443A516048E026494439496841F442
:100320007041244A443A51603FE0224944394968C7
:1003300041F470211F4A443A516036E01D49443966
:10034000496841F470011B4A443A51602DE0194953
:100350004439496841F07061164A443A516024E0DA
:100360001649096841F00F01144A11601DE0134954
:10037000096841F0F001114A116016E00F4909685F
:1003800041F470610D4A11600FE00C49096841F4B5
:1003900070410A4A116008E006E00849096841F422
:1003A0007021064A116000E000BF00BF70470000E6
:1003B0008000024044000240F8FFFDBF04040240F8
:1003C00010B50022026847F6F0739A430C6A8B68F6
:1003D00023430C6923434C6923438C692343CC6931
:1003E00023434C6A23438C6A23431A430260CB683D
:1003F00043600B6883604B68C36010BD704710B5E5
:10040000012000F017F810BD704710B5022000F071
:1004100011F810BD10B5042000F00CF810BD10B597
:10042000082000F007F810BD10B5102000F002F809
:1004300010BD704701490860704700001404014076
:1004400070B50546042440F6FF7000F065F80446D8
:10045000042C19D10D48006940F002000B490861D5
:1004600008464561006940F04000086140F6FF70B1
:1004700000F052F80446012C06D00448006941F609
:10048000FD71084001490861204670BD002002400E
:1004900004200B49C96811F0010F01D001200EE0C2
:1004A0000749C96811F0040F01D0022007E0044990
:1004B000C96811F0100F01D0032000E0042070473C
:1004C00000200240704700000549096821F0100132
:1004D000034A11601146096801431160704700002A
:1004E000002002400549096801F03801034A116003
:1004F0001146096801431160704700000020024066
:100500000248034948600348486070472301674533
:1005100000200240AB89EFCD70B504460425FFF7FB
:10052000B7FF054605E000F06BFDFFF7B1FF05469C
:10053000641E012D01D1002CF5D104B905252846F2
:1005400070BD000010B50121034800F08FF80620AF
:1005500000F0ECFA10BD0000000430002DE9F0417D
:10056000024600250026002000230024002791F8E1
:1005700003C00CF00F0591F803C01CF0100F03D05E
:1005800091F802C04CEA050591F800C0BCF1000FDB
:1005900030D0146800202AE04FF0010C0CFA00F370
:1005A000B1F800C00CEA03069E421FD183004FF051
:1005B0000F0C0CFA03F7BC4305FA03FC4CEA0404E5
:1005C00091F803C0BCF1280F05D14FF0010C0CFAD3
:1005D00000FCC2F814C091F803C0BCF1480F05D16B
:1005E0004FF0010C0CFA00FCC2F810C0401C0828A7
:1005F000D2D31460B1F800C0BCF1FF0F34DD5468F1
:1006000000202EE000F1080C4FF0010808FA0CF36E
:10061000B1F800C00CEA03069E4221D183004FF0DE
:100620000F0C0CFA03F7BC4305FA03FC4CEA040474
:1006300091F803C0BCF1280F05D100F1080C08FAAD
:100640000CF8C2F8148091F803C0BCF1480F07D130
:1006500000F1080C4FF0010808FA0CF8C2F81080FD
:10066000401C0828CED35460BDE8F081F0B50A469E
:100670000023002400210025174E7168C0F30345B4
:1006800083B200F44016B6F5401F08D121F0706126
:10069000114E766826F070660F4F7E6012E000F40F
:1006A0008016B6F5801F06D1032606FA05F4A1438D
:1006B00041F0706106E0460D360103FA06F6B143DB
:1006C00041F0706122B1460D360103FA06F631435E
:1006D000014E7160F0BD0000000001400AB10161EF
:1006E00000E04161704700BFFEE77047704700BF00
:1006F000FEE7704708B500214FF0006000F0C0F839
:100700004FF4A06000F0AAF825208DF80000012029
:100710008DF8010000208DF8020001208DF8030003
:10072000684600F049F826208DF8000001208DF879
:1007300001008DF80200684600F03EF827208DF891
:10074000000001208DF8010002208DF802006846AB
:1007500000F032F824208DF8000000208DF8010010
:100760008DF80200684600F027F808BD0020411E01
:100770000D4A11606FF070420C49C1F884204FF0AF
:10078000FF314FF0E022C2F880126FF0704208494A
:100790000A6000BF04E00022064941F82020401C06
:1007A0000F28F8D37047000080E100E000E100E08E
:1007B00084E200E000E400E0F0B500210022002324
:1007C00000250F24C678002E35D0214E366806F459
:1007D000E066C6F5E066310AC1F10405CC40467812
:1007E00006FA05F186782640314309010678B607F6
:1007F000F60EB140174E0778BF1056F8272006783E
:10080000B607F70EFF2606FA07F39A4319400A4384
:10081000104E0778BF1046F82720067806F01F070D
:100820000126BE4007787F114FF0E02C0CEB8707C4
:10083000C7F800610BE0067806F01F070126BE40EE
:10084000054F90F800C04FEA6C1C47F82C60F0BDD3
:100850000CED00E000E400E080E100E0024901432B
:10086000024A1160704700000000FA050CED00E03C
:1008700010B5FFF76CFC10BD10B5FFF766FC10BD9E
:10088000024A0A400243024B1A60704780FFFF1F72
:1008900008ED00E07047000001460020034A506860
:1008A00020F44040084350607047000000100240B0
:1008B00029B1064A52690243044B5A6104E0034AD3
:1008C00052698243014B5A61704700000010024098
:1008D00029B1064AD2690243044BDA6104E0034AB3
:1008E000D2698243014BDA61704700000010024078
:1008F00029B1064A92690243044B9A6104E0034A13
:1009000092698243014B9A617047000000100240D7
:1009100010B54FF4803000F0E1F800F045F92049BF
:1009200008700846007801282AD1002000F0CAF893
:10093000002000F00DF94FF4806000F0FDF84FF456
:100940008040FFF7A9FF1020FFF7BEFD0220FFF750
:10095000C9FD4FF4E0114FF4803000F00BF9012095
:1009600000F002F900BF392000F086F80028FAD024
:10097000022000F00DF900BF00F09CF80828FBD120
:1009800001210846FFF794FF012145F20D00FFF712
:10099000AFFF01214FF4C820FFF79AFF10BD000000
:1009A0000000002030B500210022002400232D4D3E
:1009B0006D6805F00C0121B1042905D0082923D167
:1009C00005E0294D056022E0274D05601FE0254D1B
:1009D0006D6805F47012022505EB9242214D6D6899
:1009E00005F480341CB9214D554305600BE01D4DC5
:1009F0006D6815F4003F03D01C4D5543056002E0BF
:100A0000194D5543056002E0174D056000BF00BF5A
:100A1000144D6D6805F0F0010909154D6B5C056812
:100A2000DD4045600F4D6D6805F4E061090A104D29
:100A30006B5C4568DD4085600A4D6D6805F460516A
:100A4000C90A0B4D6B5C4568DD40C560054D6D689E
:100A500005F44041890B074D6B5CC568B5FBF3F5A8
:100A6000056130BD0010024000127A0000093D000F
:100A700098150008A815000810B5014600220023AB
:100A800000204A11012A02D1094C236806E0022AFB
:100A900002D1074C236A01E0054C636A01F01F0292
:100AA000012494401C4201D0012000E0002010BD30
:100AB000001002400248406800F00C00704700003F
:100AC0000010024001460020034A506820F0F00068
:100AD0000843506070470000001002401149096847
:100AE00021F480310F4A11601146096821F48021F8
:100AF0001160B0F5803F03D0B0F5802F0ED106E035
:100B00000849096841F48031064A116007E0054947
:100B1000096841F4A021034A116000E000BF00BF52
:100B20007047000000100240704700000149C87182
:100B3000704700000010024001460020034A506840
:100B400020F4E0600843506070470000001002404D
:100B500001460020034A506820F4605040EAC1007A
:100B6000506070470010024001490866704700005D
:100B70000000424202460020044B586820F47C10DA
:100B800042EA01031843014B5860704700100240CD
:100B900001460020034A506820F0030008435060DB
:100BA000704700000010024010B5002400BF312043
:100BB000FFF762FF0C4908700C480068401C0B49A5
:100BC00008600948007828B908460068A0F58071D7
:100BD000FF39ECD13120FFF74FFF08B1012400E0CD
:100BE0000024204610BD0000080000200400002062
:100BF00070477047704721B1028842F0400202807E
:100C000004E002884FF6BF731A4002807047024624
:100C1000002013890B4201D0012000E00020704722
:100C200030B5002400230C110125A540ABB21AB148
:100C300085881D43858002E085889D43858030BD81
:100C400010B50022028802F441520B884C882343DD
:100C50008C882343CC8823430C8923434C8923432A
:100C60008C892343CC8923431A430280838B4FF220
:100C7000FF74234083830B8A038210BD704710B535
:100C8000FFF746FEFFF772FDFFF734FDFFF7A0FA0E
:100C9000FFF758FC002010BD704770477047704741
:100CA000704710B50121880700F010F810BD000052
:100CB00010B50121044800F00CF818B101210248D8
:100CC00000F004F810BD000000040040CA43028296
:100CD000704730B50246002000230024158A05EA3B
:100CE0000103958905EA010413B10CB1012000E06C
:100CF000002030BD10B5002440F225510D4800F011
:100D000068F8B0B10B4800F0F9F8C4B20A480068BE
:100D10004188094800684088401C074A1268508092
:100D2000054800688068445440F22551014800F0AD
:100D300029F810BD003801409400002010B50024AF
:100D400040F225510D4800F044F8B0B10B4800F0D6
:100D5000D5F8C4B20A48006841880948006840884C
:100D6000401C074A12685080054800688068445457
:100D700040F22551014800F005F810BD0044004044
:100D80009C00002010B5002200230A120124944088
:100D9000A3B2DC43048010BD10B502460020108AC7
:100DA0004FF2FF0318400B884C8823438C88234361
:100DB000CC8823431843108210BD21B1828942F4AC
:100DC0000052828104E082894DF6FF731A408281CD
:100DD000704770B502460B46002400210025002014
:100DE000C3F3421503F01F01012606FA01F1012D9C
:100DF00002D19689314006E0022D02D1168A314097
:100E000001E0968A31401C12012606FA04F4168885
:100E1000344011B10CB1012000E0002070BDF0B5EC
:100E2000034600240026002500201846C1F3421482
:100E300001F01F06012707FA06F5012C01D10C303D
:100E400004E0022C01D1103000E014301AB1076820
:100E50002F43076002E00768AF430760F0BD000062
:100E60002DE9F04786B005460E460024A24600BF95
:100E700000BF00272F462C8A4CF6FF700440F088F4
:100E800004432C82AC894EF6F3100440B0883189BB
:100E90000843718908430443AC81AC8A4FF6FF4094
:100EA0000440B0890443AC8201A8FFF77BFD1248DF
:100EB000874202D1DDF810A001E0DDF80CA00AEBBA
:100EC000CA0000EB0A1031688900B0FBF1F8642019
:100ED000B8FBF0F004012009642101FB10893220E5
:100EE00000EB0910B0FBF1F000F00F0004432C817F
:100EF00006B0BDE8F0870000003801400146888850
:100F0000C0F308007047C1F3080282807047704741
:100F10007047704700BFFEE7704702E008C8121F25
:100F200008C1002AFAD170477047002001E001C1D2
:100F3000121F002AFBD1704710B500F0ABF800F08B
:100F4000E9F800F069F900F0BFF900F013FA10BDFC
:100F500070B5044600256088A0B900BF09E0A0680C
:100F6000405D228840EA0201074800F023F9681C2E
:100F7000C5B26088A842F2DCFFF77EFC00206080EA
:100F8000FFF776FC70BD0000003800402DE9F0410D
:100F900000260027B0460025002400BF1FE01748A8
:100FA0000068806830F816400027B846C4F3013561
:100FB00037B195B1E1B26A1ED0B200F08BFA0CE005
:100FC000B8F1000F03D0E0B200F048FA05E025B117
:100FD000E1B26A1ED0B200F069FA701CC6B20748CE
:100FE00000684088B042DADCFFF746FC0020034985
:100FF00009684880FFF73CFCBDE8F0814400002010
:1010000008B500200090FF20009002E00098401EEC
:10101000009000980028F9D108BD10B501460022C3
:10102000002300200A884B8803EB024010BD00001B
:1010300070B504460D4604262046FFF701FA0F203E
:10104000FFF76AFA06460B48006940F001000949BB
:101050000861280C208065800F20FFF75DFA0646A6
:10106000012E06D00348006941F6FE71084001498F
:10107000086170BD0020024010B5FFF741FA00F092
:1010800002F8002010BD10B5FFF756FF00F0A6F8DB
:1010900010BD000000B587B0F020ADF81800182092
:1010A0008DF81B0003208DF81A0006A91748FFF7DA
:1010B00055FA00211648FFF79EFD0020ADF8040008
:1010C0004FF48270ADF806004FF40060ADF80800F0
:1010D0000020ADF80A00ADF80C004FF40070ADF838
:1010E0000E000020ADF81000ADF812000720ADF89A
:1010F000140001A90648FFF7A3FD01210448FFF7EA
:101100007AFD00200249888107B000BD0008014037
:101110000030014000B587B04FF47040ADF81800C2
:1011200018208DF81B0003208DF81A0006A91F480F
:10113000FFF714FA0220ADF8180010208DF81B00FC
:1011400006A91A48FFF70AFA00211948FFF753FDCC
:101150000020ADF80400ADF806004FF40060ADF8D3
:1011600008000020ADF80A00ADF80C004FF4007044
:10117000ADF80E000020ADF81000ADF81200072009
:10118000ADF8140001A90A48FFF75AFD01226021B9
:101190000748FFF745FD01210548FFF72CFD00201A
:1011A00003490C31088007B000BD0000000C01406D
:1011B0000038004070B504460D460021112000F0B3
:1011C000B3F9A58100BF01212046FFF720FD0028CB
:1011D000F9D00121112000F0A7F970BD00BF11E086
:1011E00009480068FFF7B4FE08480068FFF7B0FE42
:1011F00007480068FFF7ACFE06480068408808B161
:10120000FFF7C4FEECE70000940000209C000020E3
:10121000A40000204400002010B588B02748FFF744
:10122000FCFE04464FF40070ADF8040018208DF861
:10123000070002208DF8060001A92148FFF78EF96A
:101240004FF48060ADF8040048208DF8070001A934
:101250001B48FFF783F9601C00D00CB94FF41654FB
:1012600004940020ADF81400ADF81600ADF8180095
:10127000ADF81C000C20ADF81A000020ADF80800F5
:10128000ADF80A004FF40070ADF80C000020ADF886
:101290000E0004A90B48FFF7E3FD02A90948FFF778
:1012A0007BFD012240F225510648FFF7B8FD0121E0
:1012B0000448FFF782FD08B010BD000000D8000808
:1012C000000801400038014010B588B02648FFF7FB
:1012D000A4FE04460420ADF8040018208DF8070091
:1012E00002208DF8060001A92048FFF737F90820F1
:1012F000ADF8040048208DF8070001A91B48FFF74E
:101300002DF9601C00D00CB94FF4965404940020C1
:10131000ADF81400ADF81600ADF81800ADF81C00DB
:101320000C20ADF81A000020ADF80800ADF80A0056
:101330004FF40070ADF80C000020ADF80E0004A9C9
:101340000B48FFF78DFD02A90948FFF725FD012293
:1013500040F225510648FFF762FD01210448FFF7DE
:101360002CFD08B010BD000000DC000800080140A2
:101370000044004010B588B03448FFF74EFE0446E4
:101380004FF48060ADF8040018208DF807000220AB
:101390008DF8060001A92E48FFF7E0F84FF4006031
:1013A000ADF8040048208DF8070001A92848FFF790
:1013B000D5F84FF4C850ADF8040010208DF80700A0
:1013C00002208DF8060001A92248FFF7C7F8202067
:1013D000ADF8040010208DF8070002208DF80600FB
:1013E00001A91B48FFF7BAF8601C00D00CB94FF4F4
:1013F000165404940020ADF81400ADF81600ADF8B2
:101400001800ADF81C000C20ADF81A000020ADF853
:101410000800ADF80A004FF40070ADF80C00002091
:10142000ADF80E0004A90C48FFF71AFD02A90A48FE
:10143000FFF7B2FC012240F225510748FFF7EFFC0D
:1014400001210548FFF7B9FC08B010BD00E0000815
:10145000000C0140000801400048004010B504465F
:1014600021460F48FFF74FFD21460E48FFF74BFD81
:1014700021460D48FFF747FD00BF0948008810F0DE
:10148000800FFAD000BF0748008810F0800FFAD014
:1014900000BF0548008810F0800FFAD010BD000092
:1014A00000380140004400400048004070B5044648
:1014B0000D46074951F824002946FFF724FD00BFD7
:1014C000034850F82400008810F0800FF8D070BD59
:1014D0002C0000207FB504460D46104951F8240029
:1014E0000021FFF76AFC0E4850F8250000900B49D8
:1014F00051F824006946FFF7B3FC094A52F8251059
:10150000084A531403FB0420FFF792FD034951F8E6
:1015100024000121FFF751FC7FBD00002C000020BA
:10152000AC15000800D8000870B505460E46281115
:10153000072813D2DFE800F00406080A0C0E10009A
:101540000D4C0CE00D4C0AE00D4C08E00D4C06E093
:101550000D4C04E00D4C02E00D4C00E070BD00BFEE
:1015600005F00F000B4A32F8101032462046FFF704
:10157000B5F800BFF2E7000000080140000C014090
:10158000001001400014014000180140001C0140FF
:10159000002001400A0000200000000001020304B6
:1015A0000102030406070809020406082C010000D2
:1015B00058020000B004000060090000C0120000E2
:1015C00080250000004B00000096000000E10000B4
:1015D00000C20100008403000000000000000000C1
:1015E0000000000000000000000000000C160008D1
:1015F00000000020A80000001A0F0008B416000820
:10160000A8000020000C00002A0F000800000000C5
:1016100000000000000001000200040008001000AB
:1016200020004000800000010002000400080010BB
:1016300000200040008000000038014000440040CD
:10164000004800400000000000000000A80000204A
:10165000380000200010000000000000A802002058
:101660000010000000000000A8030020002000007F
:1016700000000000A804002000200000000000007E
:10168000A80500200030000000000000A80600208F
:101690000030000000000000A807002048000020E3
:1016A00054000020600000206C0000207800002022
:0416B0008400002092
:04000005080000ED02
:00000001FF
